:020000040200F8
:1000000000040022BF19000299180002CD19000255
:10001000CD190002CD190002CD190002CD19000240
:10002000000000000000000000000000CD190002E8
:10003000CD19000200000000CD190002CD19000208
:080040002D1000022D1000023A
:100048001000000000000000017A5200017C0E013F
:080058001B0C0D00000000006C
:10006000F0B503AF2DE9000F83B000EB400040F284
:100070003043C2F20023154603EBC0088946D8F886
:100080002C0002281AD001280CD048B9444654F854
:10009000246F6068F143B04275D90844A84279D210
:1000A00000269BE0C2465AF8244FDAF80410A14219
:1000B0003FD9E0430144D8F820003FE058F824AF8E
:1000C00008F10400A8F1040B00260290A8F1080032
:1000D000019024E0DBF8001010440844A1EB0A0171
:1000E000884250EA31804946A84250EA3584019856
:1000F00022460068504401F0F3FD04EB0A00DBF8EF
:100100000010411AA5EB040550EA118A2644A144C7
:10011000002DBFF35F8F4046C8F800A05ED0029864
:100120006FEA0A0200685045D4D91044DBF8001089
:10013000D4E7E243D8F8200011440144A94251EA2F
:100140003586051B58F81C0F2044AE4209D249469B
:10015000324601F0C5FDBFF35F8F3019CAF80000C9
:100160003CE049462A46444601F0BAFDA6EB0508A4
:10017000206809EB0501424601F0B2FDBFF35F8F35
:10018000CAF800802AE0D8F8202008441044A84289
:10019000FFF486AF58F81C0FD8F804103044A1EBD8
:1001A000060A554508D249462A4601F099FDBFF393
:1001B0005F8F7019206010E049465246464601F0B4
:1001C0008FFDA5EB0A08306809EB0A01424601F0F1
:1001D00087FDBFF35F8FC4F800802E46304603B022
:1001E000BDE8000FF0BDF0B503AF4DF8048D40F24F
:1001F00030450C46C2F200252B78532B38D0804670
:10020000A8212846164601F067FD03202861686191
:1002100040F2D84042F2ED01C2F20020C0F20021CB
:10022000A961E8614FF4806028620020A8626862DA
:10023000E862296640F6D8014FF0100EC2F20021A4
:100240006966C5F868E02867E8666867BFF35F8F8E
:1002500041F60251C0F2002180F00F0201308A5CA9
:1002600005F8012B0FF009C032464046BFF35F8FFF
:10027000EFF311854FF0200181F311882146FFF73C
:10028000EFFE85F311885DF8048BF0BDF0B503AF88
:100290002DE9000F9BB090460C4606A94FF0000BCD
:1002A00004901A900020169140211791CDE918BBB7
:1002B0000EE0011DC8F800100168CDE9003916A84C
:1002C000534600F027FA1998B0F1FF3F40F31E8221
:1002D00014F8011B25291CD0002900F00982DDE952
:1002E0001720431C934207D8169A11541893199853
:1002F000179A0130199018469042E4D116991A982D
:10030000FFF771FF1899884240F0EF81CDF860B097
:10031000D9E74FF000092178A1F123030D2B13D861
:100320000222DFE803F00B111111111111110D114F
:100330000F11110749EA02090134ECE70822F9E735
:100340000422F7E70122F5E7A1F13A02002312F1B6
:100350000A0F0ED30A4614F8011F03EB8303A1F121
:100360003A0602EB430216F10B0FA2F130030A46E4
:10037000F1D82E290ED1224612F8015F2A2D0DD177
:10038000D8F8001002340A1DC8F80020D1F800A0E7
:1003900001211EE000214FF0000A1AE0A5F13A0603
:1003A00016F10A0F03D200214FF0000A10E04FF0BF
:1003B000000A12F8011F0AEB8A06A1F13A0405EBC4
:1003C000460614F10B0FA6F1300A0D46F1D80121B3
:1003D000144614F8012B02F0FB06682EF9D0A2F1A6
:1003E0005806202E26D8DFE806F01211111111113F
:1003F0001111111111163C111111111111111111BD
:1004000011117111117E1138111112005BE7D8F82A
:10041000000010224DE7DDE91720411CD8F800301C
:10042000914203F10406C8F800603FF665AF169AE2
:100430001B680AE0252A7FF446AFDDE91720411C3E
:1004400091423FF659AF169A2523135418911998E3
:10045000179A0130199008464EE7D8F800000A2292
:1004600027E7D8F800104CF6CD4C0A1DC8F800203C
:10047000D1F800E0CCF6CC4CBEF1000FCEF100017B
:10048000724648BF0A4603910A2A4FF0010107DB72
:10049000A2FB0C56632A01F101014FEAD602F7D8FC
:1004A000514551EA8A8C0026002BCDF814E056D035
:1004B000BEF1000F5FEA5F9109F0040241EA920188
:1004C000A3EB010B5FEA89754ED475E0D8F8000004
:1004D0001022011DC8F80010016808200823CDE98A
:1004E000000B16A8EDE6D8F80020131DC8F8003060
:1004F000126841F67773002AC0F2002352EA13858E
:100500005FEA018908E01998CDF860B0B0F1FF3FCB
:10051000AAF1010A7FF7D7AE15F8011BBAF1000F57
:100520005FEA198200293FF4CEAE002A7FF4CBAEF9
:10053000DDE917235E1C964207D81698C15433464E
:100540001998179A0130189619909342DED116998E
:100550001A98FFF748FE18998842D4D0C5E04FF0AA
:10056000000B5FEA897527D5BAF1000F24D1002866
:1005700000F1B8800599B1F1FF3F4FDD5FEA4971A5
:1005800074D5DDE917214B1C934208D816982B220D
:10059000425419461998179A0130189319909142AC
:1005A0005BD116991A9802956546FFF71CFE1899BB
:1005B000884205994CD098E05FEAC971D7D1BBF168
:1005C000000FD4D0029504E000260028AB4600F1CD
:1005D0008980ABF101055D4538BFDC4540D2DDE9DE
:1005E00017214B1C934208D81698202242541946D2
:1005F0001998179A0130189319904FF0000B9142F7
:10060000E2D116991A986646FFF7EDFD18998842CF
:100610006BD11998B446CDF860B0D5E7DDE9172164
:100620004B1C934208D816982D224254194619980B
:10063000179A013018931990914213D116991A986C
:1006400002956546FFF7CFFD1899884203994CD172
:100650001998AC46029D18960591002806D541E0F0
:10066000029D84E70399059100283BD4002D0AD40C
:100670000A2216A805995346CDE900B900F04AF8B8
:100680004FF0000B1FE609F0010151EA0A01EFD11A
:10069000BBF1000FECD0ABF101055D4538BFDC4587
:1006A000E6D2DDE917214B1C934208D81698302278
:1006B000425419461998179A0130189319904FF01F
:1006C000000B91420BD116991A986646FFF78BFDE5
:1006D0001899884209D11998B446CDF860B000281D
:1006E000AB46D8D54FF0000BEDE54FF0FF300DE0F5
:1006F00040B1189A42B106A90498FFF774FDDDE9EC
:10070000181002E0002001E0002108441BB0BDE801
:10071000000FF0BDF0B503AF2DE9000F81B0154615
:10072000884691421E460446D7F808A04FF00100C3
:1007300005D34146B1FBF5F10130A942FAD2B042EE
:1007400050EA8689BAF1000FF96835D011F001003E
:1007500032D188074FF020014FF0200048BF3020F1
:10076000002E50EA018B03E0E068B0F1FF3F23DD8B
:10077000BAF1000F20D0D1451ED2D4E90120411C8E
:10078000914208D8226802F800B0A160E06862686F
:100790000130E06008469042AAF1010AE4D12168E4
:1007A0002069FFF720FDA168884202D10020A060E7
:1007B000DAE74FF0FF30E060E06800283ED44FF009
:1007C000010B02E0013E0BFB05FB022EFAD2B8FB47
:1007D000FBF1A942F7D2A2686168531CB8FBFBF693
:1007E0008B420CD842F29F112068C0F20021895D33
:1007F00081541A46E06861680130A360E0608A4273
:1008000009D121682069FFF7EEFCA26890420CD163
:100810000022E068A26000280AD4BBFBF5F106FBC9
:100820001B88AB458B46D7D202E04FF0FF30E0602B
:10083000F968C90718BFBAF1000F03D101B0BDE8CC
:10084000000FF0BD2025AAF10106564538BFD1455D
:10085000F4D26168531C8B4207D8206885541A462D
:10086000E06861680130A360E0608A4209D12168D4
:100870002069FFF7B8FCA168884207D10022E06830
:10088000A260B0F1FF3FB246DDDCD7E74FF0FF30AA
:10089000E060D3E782B080B56F4682B0C7E902233B
:1008A00007F10802019201AAFFF7F0FC02B0BDE8CF
:1008B000804002B0704780B56F4684B042F29841E4
:1008C0000020C0F2002107F8010C07F8020C02908A
:1008D0000D8802A8D1F804A000F093FF9DF80B301A
:1008E00041F6135141F6E9629DF809609DF80A400E
:1008F000C0F20021C0F200220020CDE90046FFF73F
:10090000C9FF42F249010020C0F20021FFF7C2FFF7
:1009100000F01BF9C0B142F2000142F2131242F2A0
:100920001C030446C0F20021C0F20022C0F20023E2
:100930000020FFF7AFFF41F6E0710020C0F2002178
:100940002246FFF7A7FF00BE00F041F90446C8B1F8
:1009500042F2000142F2131242F27113C0F200217E
:10096000C0F20022C0F200230020FFF793FF00F046
:1009700068F941F6E0710020C0F200212246FFF73D
:1009800089FF00BE00F002F900F03EF995B941F68A
:1009900007710020C0F20021FFF77CFF00F051F941
:1009A00044B141F6E0710020C0F200212246FFF779
:1009B00071FF00BE40F6E80440F6E90640F60C1B65
:1009C000C2F20024C2F200264FF00008C2F2002B4F
:1009D0002078002865D042F2F6010020C0F2002104
:1009E000A14684F80080FFF755FFBAF8001058467A
:1009F0007A1E00F086F9D0B142F2000142F21312E1
:100A000041F6C07380460020C0F20021C0F20022EF
:100A1000C0F20023FFF73EFF00F013F941F6E0714A
:100A20000020C0F200214246FFF734FF00BE17F855
:100A3000010CBAF8001080F00102584607F8012CAA
:100A400000F070F9D0B142F2000142F2131241F607
:100A50007E7305460020C0F20021C0F20022C0F2E1
:100A60000023FFF717FF00F0ECF841F6E0710020DB
:100A7000C0F200212A46FFF70DFF00BE17F8010C57
:100A800041F62B71C0F20021012841F6AA70C0F294
:100A9000002050EA01810020FFF7FCFE4FF0000823
:100AA0004C46307808B92FF06DC886F8008058465B
:100AB000BAF802107A1E00F024F9BAF804100546BC
:100AC0005846BA1E00F01DF955B100F0D6F841F6AF
:100AD000E0710020C0F200212A46FFF7DBFE00BED5
:100AE00017F8020C17F8012CBAF8021080F0010078
:100AF00007F8020C82F00102584607F8012C00F0BA
:100B000011F9BAF8041017F8022C0546584600F0FF
:100B100009F90DB92FF0A5C000F0AFF841F6E0716A
:100B20000020C0F200212A46FFF7B4FE00BE4FE7C6
:100B3000022818BF704740F60C1042F22421C2F27E
:100B40000020C0F2002100F0D0B8D0B502AF40F6CE
:100B5000FC0042F2C811C2F20020C0F2002100F0F5
:100B6000D1F9002808BFD0BD42F2000141F6FE6273
:100B700042F24813C0F20021C0F20022C0F200236A
:100B800004460020FFF786FE2046D0BDD0B502AF58
:100B900040F6EC0042F2B011C2F20020C0F2002197
:100BA00000F0B0F9002808BFD0BD42F2000141F6C4
:100BB000ED6242F24813C0F20021C0F20022C0F2FE
:100BC000002304460020FFF765FE2046D0BDD0B5C7
:100BD00002AF40F6FC00C2F2002000F0E1F900286C
:100BE00008BFD0BD42F2000141F69F7242F21D13D0
:100BF000C0F20021C0F20022C0F20023044600200F
:100C0000FFF748FE2046D0BDD0B502AF40F6EC005D
:100C1000C2F2002000F0C4F9002808BFD0BD42F2A3
:100C2000000141F6417241F6F763C0F20021C0F2C3
:100C30000022C0F2002304460020FFF72BFE2046CE
:100C4000D0BD80B56F4640F6FC00C2F2002000F037
:100C5000C9F9002808BF80BD42F2000142F2941297
:100C600041F64D73C0F20021C0F20022C0F2002311
:100C70000020BDE88040FFF70DBE80B56F4640F60E
:100C8000EC00C2F2002000F0ADF9002808BF80BDE2
:100C900042F2000142F23D0241F64D73C0F20021E2
:100CA000C0F20022C0F200230020BDE88040FFF720
:100CB000F1BD40680D2818BF704740F6E8000121DB
:100CC000C2F200200170704740680C2818BF7047BE
:100CD00040F6E9000121C2F200200170704780B5A2
:100CE0006F46FFF7E8FD002080BD80B56F4645F2F6
:100CF0005422C5F24F020260084600F02DF8002091
:100D000080BD6FF03F00CBB200EA910040F60001D9
:100D100000EB8300C4F2400141580020C1F34001C0
:100D200011707047D0B502AFCBB2012098406FF080
:100D3000010E84B20EEAD110002A40F208024FEAF6
:100D40000011C4F240024FF000004FF4803C08BF95
:100D50000CFA03F45450D0BDF0B503AF4DF804BD08
:100D6000044600F060F840F6681CEFF31081C2F210
:100D7000002C012080F31088DCF8000038B940F620
:100D800014500022C4F24000027040220270DCF8CD
:100D900000000130CCF8000081F31088208828B3CF
:100DA00040F6000E0021C4F2400E07E00EEB80106A
:100DB000013140F822302088814217D2606800EB70
:100DC000C10250F831309288D8034FEA1220D2B2D3
:100DD000ECD50EEB801555F8226026F4803645F8E8
:100DE000226023F4803645F82260DFE70120EFF32C
:100DF000108180F31088DCF8000020B1DCF80000DE
:100E00000138CCF80000DCF8000038B940F6145086
:100E10000022C4F2400002708022027081F3108828
:100E20005DF804BBF0BDF0B503AF2DE9000F81B054
:100E300004460088002861D04EF64C4B0025C4F2D1
:100E4000010B03E020880135854257D242F2342954
:100E500042F240080026C0F20029C4F220080AE04D
:100E600088F80000C820012100F0D1FC013608F10B
:100E70000208032EE6D0606839F8022B00EBC501AA
:100E800089889142F2D150F835009BF80010012278
:100E900000F0B85002FA06FAB0F1807F0AEA0100C9
:100EA00015D158B9012000F063FD9BF8000040EA1D
:100EB0000A008BF80000012000F030FD98F90000D6
:100EC0000028D3D498F8000040F08000C8E758B15B
:100ED000012000F04DFD9BF8000020EA0A008BF88D
:100EE0000000012000F01AFD98F90000B0F1FF3F6A
:100EF000BCDC98F8000000F07F00B1E701B0BDE86D
:100F0000000FF0BDF0B503AF4DF8048D91F902303C
:100F10004CF2003CC4F2000C03714FF0000E3C2573
:100F20005CF823804CF823E00B788C688460CE68F2
:100F300005EA9304C3251C44C0F2400565F31F2451
:100F400049F60055CFF6FF75C6604371024604F8B6
:100F500005E00B794E79C878F60146EA0313184389
:100F6000605592F904004CF8208092F904000028A2
:100F70000DD44EF2004340F66C164978C0B2CEF262
:100F80000003C2F200260901C15446F8202044F2B1
:100F900055310020C0F2490111605DF8048BF0BDAD
:100FA00090F904004CF20031C4F200014EF2001C32
:100FB000CEF2000C51F8202022F4803241F820209B
:100FC00051F82010410900F01F0001220CEB8103B1
:100FD00002FA00F0BFF35F8FC3F880014CF82100E4
:100FE00000207047014690F9040000281AD4C0B2CE
:100FF0001C224EF2801C00F01F0302EAD000CEF249
:10100000000C01229A4040F80C20BFF34F8FBFF331
:101010006F8F91F9040040F66C12C2F20022002397
:1010200042F82030002000220A607047F0B503AF7C
:101030004DF804BD82B04FF07041EFF3038001EB37
:10104000006140F66C128815C2F200223C234CF27B
:1010500000341058C4F200040D16427903EA9203DA
:101060001A44C323C0F2400363F31F2249F600531E
:10107000CFF6FF73D25C02F00306032E07D054F8BC
:10108000251021F4803144F8251054F8251081688A
:1010900029B14279C0680090684601928847032EC2
:1010A00007D154F8250020F4803044F8250054F886
:1010B000250002B05DF804BBF0BDD4D44EF224018B
:1010C000C4F201018878098801F00F02A2F1080139
:1010D00003293BD8DFE801F0022C101E40F200414A
:1010E000C2F2002151F820004AF6AB21CAF6AA212B
:1010F000A0FB0101480830E040F20041C2F20021AB
:1011000051F820004AF6AB21CAF6AA21A0FB010142
:10111000C80822E040F20041C2F2002151F820004C
:101120004AF6AB21CAF6AA21A0FB0101080914E086
:1011300040F20041C2F2002151F820004AF6AB21F2
:10114000CAF6AA21A0FB0101880806E040F200418E
:10115000C2F2002151F82000D04040F67C11C2F2CA
:10116000002108607047D4D4D4D4D4D4D4D4D4D4F7
:10117000F0B503AF2DE9000F81B00FF2E4504EF24D
:10118000FA3840F2004BC4F2010890ED001FC2F2A1
:10119000002B0FF2DC504AF203514EF25505CFF608
:1011A000FF71A8F800108BED001F0BF12003C4F2B3
:1011B000010590ED001F48F2004040F60001C1F229
:1011C000D77043F600028BED041FC2F6AF71C1F673
:1011D0009C4207C315F82F0C35F8311C01F00F02A3
:1011E000A2F1080103292BD8DFE801F002200C1638
:1011F0004AF6AB215BF82000CAF6AA21A0FB010148
:10120000480820E04AF6AB215BF82000CAF6AA2184
:10121000A0FB0101C80816E04AF6AB215BF82000EC
:10122000CAF6AA21A0FB010108090CE04AF6AB218D
:101230005BF82000CAF6AA21A0FB0101880802E0A1
:101240005BF82000D04040F67C1A4EF60046C2F211
:10125000002AC4F201060A214EF60144CAF8000031
:101260004FF65060CFF6FF704AF20359C4F2010402
:101270003154092085F84D00307818B9207880075E
:1012800000F06282307840B901203070C82001211E
:1012900000F0BDFA30780128FCD1002020703070B9
:1012A000002005F81F0C05F8230C15F8190C000791
:1012B000FBD542F60230C0F20100C5F8730040F2DF
:1012C000234025F8070C002005F80B0C4FF6021000
:1012D000C5F8570040F2514025F8090C15F8410CAB
:1012E00000F0F800013005F8410C15F8410CC0067B
:1012F000FBD4002005F82B0C15F8190C8006FBD543
:101300004CF200060020C4F21306307030783078BA
:1013100030787068FA2806D0FA20C1F60060706054
:101320007168FA29FBD1B0687D2806D07D20CEF205
:101330000010B060B1687D29FBD143F23240C3F2A6
:10134000232045F8350C42F2201025F8310C0520F9
:1013500005F82F0C15F82F0C35F8311C01F00F0291
:10136000A2F1080103292BD8DFE801F002200C16B6
:101370004AF6AB215BF82000CAF6AA21A0FB0101C6
:10138000480820E04AF6AB215BF82000CAF6AA2103
:10139000A0FB0101C80816E04AF6AB215BF820006B
:1013A000CAF6AA21A0FB010108090CE04AF6AB210C
:1013B0005BF82000CAF6AA21A0FB0101880802E020
:1013C0005BF82000D040CAF80000962001210124DB
:1013D00000F01DFA70686FF39F20652828BF3470F5
:1013E00015F82F0C35F8311C01F00F02A2F108019D
:1013F00003292BD8DFE801F002200C164AF6AB21B6
:101400005BF82000CAF6AA21A0FB0101480820E0F1
:101410004AF6AB215BF82000CAF6AA21A0FB010125
:10142000C80816E04AF6AB215BF82000CAF6AA21EC
:10143000A0FB010108090CE04AF6AB215BF8200093
:10144000CAF6AA21A0FB0101880802E05BF820008F
:10145000D040CAF8000042F20000C4F20000A9F136
:10146000020101800121BFF35F8F01724FF425411A
:10147000BFF35F8F018095F8850040F0400085F84C
:10148000850095F98500B0F1FF3FFADC032085F86F
:101490007F00C92085F8850095F8850000F0BF0021
:1014A00085F8850095F985000028FBD4012005F812
:1014B000250C05F8030C05F8020C002005F8170CA4
:1014C000802005F8170CE87F40F04000E87795F998
:1014D0001F00B0F1FF3FFADC0720E8754A20E877EB
:1014E0000A20E87795F91F000028FBD4B8F800001F
:1014F000A8F8009095F8201041F0400185F82010E0
:1015000095F92010B1F1FF3FFADC0021297647213F
:1015100085F82010072185F8201095F92010002962
:10152000FBD4A8F8000095F8210040F0400085F8B1
:10153000210095F92100B0F1FF3FFADC0320687625
:10154000CA2085F8210095F8210000F0BF0085F839
:10155000210095F921000028FBD4287840F04000B4
:10156000287095F90000B0F1FF3FFADC022005F881
:10157000010CCA202870287800F0BF00287095F967
:1015800000000028FBD4A87840F04000A87095F92E
:101590000200B0F1FF3FFADC00206870C720A8709D
:1015A000A87800F0BF00A87095F902000028FBD4CD
:1015B000287A40F04000287295F90800B0F1FF3F0A
:1015C000FADC0120E871C6202872287A00F0BF00FA
:1015D000287295F908000028FBD495F8230040F004
:1015E000400085F8230095F92300B0F1FF3FFADCB5
:1015F0000220E876C92085F8230095F8230000F042
:10160000BF0085F8230095F923000028FBD4A87AB1
:1016100040F04000A87295F90A00B0F1FF3FFADCF3
:1016200001206872CA20A872A87A00F0BF00A872D0
:1016300095F90A000028FBD495F8220040F04000FC
:1016400085F8220095F92200B0F1FF3FFADC042072
:10165000A876CA2085F8220095F8220000F0BF0085
:1016600085F8220095F922000028FBD4A87940F0E3
:101670004000A87195F90600B0F1FF3FFADC0220A6
:101680006871CA20A871A87900F0BF00A87195F907
:1016900006000028FBD495F8860040F0400085F84D
:1016A000860095F98600B0F1FF3FFADC022085F84C
:1016B0008000C52085F8860095F8860000F0BF0000
:1016C00085F8860095F986000028FBD495F88700F8
:1016D00040F0400085F8870095F98700B0F1FF3FA2
:1016E000FADC012085F88100C52085F8870095F88F
:1016F000870000F0BF0085F8870095F98700002873
:10170000FBD495F8890040F0400085F8890095F9F0
:101710008900B0F1FF3FFADC092085F88300C92079
:1017200085F8890095F8890000F0BF0085F88900E8
:1017300095F989000028FBD44FF42540A8F8000053
:1017400001B0BDE8000FF0BD4FF47A7000F018F85A
:10175000A6E500BF00BF00BF00BF00BF00BF00BFC5
:10176000006CDC0200127A000080000000366E017E
:101770000080000000CA9A3B0046C3235543DE1395
:101780007047B0B502AF42F22404C820C4F220046E
:1017900001210025257100F03AF82570207808B164
:1017A0002FF005C0207840F00200207020788007DC
:1017B000FCD4002004F8020C14F8020C08B12FF03D
:1017C00005C84FF0030E002004F11C0111F8102091
:1017D00002F07F0201F8102011F91020002AFBD43A
:1017E00001300FF00DC8012000F0C2F84EF64C4158
:1017F0000120C4F2010100220A70BDE8B04000F0EF
:101800008DB8014600204FF0C0620A60704740F674
:101810007C1241F20023C2F20022C0F27A03484354
:1018200012689A420FD344F23F21C0F20F011144D3
:101830004DF68362C4F21B32A1FB0212910CA0FB95
:101840000101C9B11DE04CF60021C3F69A31B1FB8C
:10185000F2F148F63812C0F24102904205D24FF43C
:101860007A725043B0FBF1F006E0B0FBF1F0904229
:1018700007D24FF47A714843002808BF704700F040
:1018800007B84FF0FF3000F003B8D4D4D4D4D4D488
:1018900001380028FCD17047F0B503AF4DF8048D36
:1018A0004CF2201840F61414C4F200080026C2F2CC
:1018B000002458F8200CD8F8001001EA000503E0D5
:1018C00001360434152E09D025FA06F0C007F7D0EA
:1018D00021680029F4D0F0B28847F1E748F8105C9D
:1018E000D8F800002842FBD15DF8048BF0BD80B52C
:1018F0006F464FF0020E42F230204CF200320021CF
:10190000C0F20020C4F2000230F81130002B18BFE2
:1019100042F8213001210FF009C880BD0122EFF308
:10192000108182F3108840F67412C2F2002232F85D
:10193000103023B132F81030013B22F8103032F869
:10194000102012B181F3108870474EF2FA3242F241
:10195000884CC4F20102C0F2002C13883CF810003D
:1019600043F4254323EA0000108081F31088704778
:10197000D0B502AF0122EFF3108182F3108840F658
:101980007412C2F2002232F8103083B94EF2FA3EDD
:1019900042F2884CC4F2010EC0F2002CBEF80040A6
:1019A0003CF81030234343F42543AEF8003032F8BE
:1019B0001030013322F8103081F31088D0BD80B58B
:1019C0006F4600F005F8FFF78AF9FEE700BE7047A2
:1019D000F0B503AF2DE900074EF6085840F201209C
:1019E000CEF20008C0F20E004EF20004C8F80C005F
:1019F000CEF20104BFF34F8FBFF36F8F58F8080C7E
:101A0000C0F3035110F00F0F5FEA0F9001295FEA56
:101A10001081206810D879B940F0040020604EF29F
:101A20000800BFF34F8FCEF20000BFF36F8F016845
:101A300041F48031016002E020F004002060BFF337
:101A40004F8FBFF36F8F4FF4700040F20001C8F862
:101A500080000020C0F20021C8F80010FFF768F8ED
:101A6000FFF786FB0120FFF763F840F20000C2F2A7
:101A7000002080F30A882068800725D5D8F8000068
:101A8000B0F1007F20D120694FF40071C0F3C30092
:101A9000626901FA00F3C2F3C30081400020DA0852
:101AA0000646CB08014642F007C800BF00BF00BF92
:101AB000E6E802010FF005C04FF0005243F005C008
:101AC000E2E802010FF005C042F25C29C0F20029F1
:101AD000D9F800508DB1D9F804002E46041D03E05A
:101AE000013E04F10C0408D060790028F8D154E9D3
:101AF0000101091A00F0F0F8F2E7D9F808A0BAF1EC
:101B0000000F13D0D9F80C00564600F1080403E08A
:101B1000013E04F1100409D060790028F8D154E99D
:101B200002022168121A00F0DBF8F1E7FFF7C6FAAB
:101B3000FFF727FE0320FFF71BFF4FF00E0E40F6C6
:101B40003050C4F24000002120F8041B0FF005C003
:101B50004EF210140320C4F20104FFF7DFFE03204D
:101B6000FFF706FF44F204000021C4F220000160E8
:101B700041608160C1600320FFF7D0FED4F8C80245
:101B800010B1D4F8C80211E0207878B10120FFF735
:101B9000EFFE207800F0C0008028FAD100202070ED
:101BA00020783F28FCD80120FFF7B8FE0120FFF77E
:101BB000DFFE207900F0C0008028FAD100202071DB
:101BC00020793F28FCD80120FFF7A8FE0220FEF76D
:101BD000AFFF9DB1D9F804004FF48076041D03E0F7
:101BE000013D04F10C0409D06079B6EB002FF7D168
:101BF00054E90101091A00F06FF8F1E7BAF1000F9A
:101C000016D0D9F80C004FF4807500F1080404E0F8
:101C1000BAF1010A04F110040AD06079B5EB002F83
:101C2000F6D154E902022168121A00F059F8EFE7E0
:101C300040F68414C2F20024204600F02DF820461D
:101C400000F040F8BFF34F8F002042F2EE41BFF3A7
:101C50006F8FC8F8480242F2EE40C0F20020C0F296
:101C60000021BFF34F8F081ABFF36F8F8410012C30
:101C700008DB42F2EE45C0F2002555F8040B804720
:101C8000013CFAD1FFF733FE0020BDE80007BDE8B4
:101C9000F04000F000B87047D0B502AF05490446E7
:101CA000054A00F01DF805480549204400F014F8E5
:101CB000D0BD00BF60000002000000000000000076
:101CC000000000000249401A02490860704700BF46
:101CD00008000000800900220A46002100F00AB82E
:101CE000D0B502AF00239A4203D0CC5CC454013378
:101CF000F9E7D0BD00239A4208BF7047C1540133B1
:101D0000F9E70000000000005454522052454747B4
:101D10004553000D0A2A2A2A2A2A2A2A2A2A2A2A46
:101D20002A2A2A2A2A2A2A2A2A2A2A2A2A2A2A2A13
:101D30002A2A2A2A2A2A2A2A2A2A2A2A2A2A2A2A03
:101D40002A2A2A2A2A2A2A2A2A2A2A2A2A2A2A2AF3
:101D50002A2A2A2A2A2A2A0D0A2A20202052656E97
:101D60006573617320465350204578616D706C65D2
:101D70002050726F6A65637420666F7220725F69AB
:101D80006375204D6F64756C652020202020202015
:101D9000202020202020202020202A0D0A2A202058
:101DA000204578616D706C652050726F6A65637450
:101DB0002056657273696F6E2025732020202020C5
:101DC0002020202020202020202020202020202013
:101DD000202020202020202020202020202A0D0A22
:101DE0002A202020466C657820536F6674776172D4
:101DF00065205061636B2056657273696F6E202099
:101E000025642E25642E25642020202020202020DB
:101E100020202020202020202020202020202020C2
:101E2000202020202A0D0A2A2A2A2A2A2A2A2A2A77
:101E30002A2A2A2A2A2A2A2A2A2A2A2A2A2A2A2A02
:101E40002A2A2A2A2A2A2A2A2A2A2A2A2A2A2A2AF2
:101E50002A2A2A2A2A2A2A2A2A2A2A2A2A2A2A2AE2
:101E60002A2A2A2A2A2A2A2A2A0D0A5265666572ED
:101E700020746F20726561646D652E7478742066BD
:101E8000696C6520666F72206D6F72652064657481
:101E900061696C73206F6E204578616D706C652090
:101EA00050726F6A65637420616E640D0A46535008
:101EB00020557365722773204D616E75616C2066C5
:101EC0006F72206D6F726520696E666F726D6174DE
:101ED000696F6E2061626F757420725F696375202F
:101EE0006472697665720D0A00312E30006963757F
:101EF0005F696E697431006661696C65640069636D
:101F0000755F696E6974000D0A54686572652061B9
:101F10007265206E6F204C454473206F6E2074688C
:101F2000697320626F6172640D0A004C454420534E
:101F3000746174653A204C6F777B4F46467D0D0A7D
:101F4000006963755F656E61626C6531000D0A2A18
:101F50002A525F4943555F45787465726E616C49DA
:101F60007271436C6F736520415049204641494C62
:101F700045442A2A0D0A00284E554C4C29002A2A8D
:101F800020525F494F504F52545F50696E577269EB
:101F90007465204641494C4544202A2A0D0A0069AF
:101FA00063755F656E61626C65004C4544205374D7
:101FB0006174653A20486967687B4F4E7D0D0A0061
:101FC0002A2A20525F494F504F52545F50696E5237
:101FD000656164204641494C4544202A2A0D0A0087
:101FE0000D0A52657475726E6564204572726F7267
:101FF00020436F64653A203078257820200D0A0050
:102000005B4552525D20496E2046756E6374696F60
:102010006E3A20257328292C202573002A2A20694E
:1020200063755F696E69742066756E6374696F6E3F
:10203000206661696C6564202A2A0D0A006963754F
:102040005F6465696E697431000D0A5468697320B4
:102050006578616D706C652070726F6A656374205D
:1020600064656D6F6E7374726174657320746865F6
:102070002066756E6374696F6E616C697479206F28
:102080006620494355206472697665722E0D0A4FA9
:102090006E207072657373696E6720746865207551
:1020A000736572207075736820627574746F6E2C1E
:1020B00020616E2065787465726E616C20495251A2
:1020C000206973207472696767657265642C207774
:1020D0006869636820746F67676C6573206F6E2D25
:1020E000626F617264204C45442E0D0A0054657283
:1020F0006D696E616C000D0A5573657220507573C1
:102100006820627574746F6E2050726573736564B5
:102110000D0A0068616C5F656E747279000D0A2AA1
:102120002A525F4943555F45787465726E616C4908
:102130007271456E61626C6520415049204641498B
:102140004C45442A2A0D0A000D0A2A2A525F4943A7
:10215000555F45787465726E616C4972714F706538
:102160006E20415049204641494C45442A2A0D0AD7
:10217000002A2A206963755F656E61626C6520665E
:10218000756E6374696F6E206661696C6564202A80
:102190002A0D0A006963755F6465696E69740030B1
:1021A00031323334353637383941424344454600BD
:1021B0000C0C010103010000C90C0002000000002A
:1021C000AF21000200D4D4D40D0C000103010000A3
:1021D000B30C000200000000C42100020040000017
:1021E000080000000040000009000000000001009D
:1021F00008020000000001000902000000000100C8
:102200000A020000000001000B020000040C0000A4
:10221000030300000400000000060000040C00009E
:10222000070A000009000000DC2100020000000095
:102230000E000D00020403040404D4D4000000685E
:1022400000000068000000800000008000000070B6
:102250000000007000000022000000220B000000BF
:102260007422000219000000F8220002040000009D
:102270003C22000200000068000000680001000D20
:1022800000000068000000680001000D00000080F0
:1022900000000080000100080000008000000080B5
:1022A0000001000800000070000000700001000A3A
:1022B00000000070000000700001000A0000000033
:1022C00000000000010000050000002000000020C8
:1022D00001000004000000220000002200000003B2
:1022E0003004002284090022000000038409002237
:1022F000840900220000000300000068000000685C
:10230000000000900001090D000000680000006856
:102310000000007800010B0D00000068000000685C
:10232000000000270001020D0000006800000068A6
:10233000600000020001010D00000080000000802C
:1023400000000090000109080000008000000080EB
:102350000000007800010B080000008000000080F1
:10236000000000270001020800000080000000803B
:102370006000000200010108000000700000007011
:10238000000000900001090A0000007000000070C9
:102390000000007800010B0A0000007000000070CF
:1023A000000000270001020A000000700000007019
:1023B000600000020001010A0000000000000000AF
:1023C000000000900101090500000000000000006D
:1023D0000000007801010B05000000000000000073
:1023E00000000027010002050000000000000000BE
:1023F0006000000201000105000000200000002034
:1024000000000090010109040000002000000020ED
:102410000000007801010B040000002000000020F3
:10242000000000270100020400000020000000203E
:1024300060000002010001040000002200000022F0
:1024400000000090000109030000002200000022AB
:102450000000007800010B030000002200000022B1
:1024600000000027000002030000002200000022FC
:102470006000000200000103840900228409002298
:1024800060000002000001030100020008001000CB
:1024900000060303070AD4D40300000090240002BE
:1024A00000000006362E302E30004275696C742014
:1024B000776974682052656E657361732041647634
:1024C000616E63656420466C657869626C65205353
:1024D0006F667477617265205061636B6167652018
:0E24E00076657273696F6E20362E302E3000D6
:04000005020019BF1D
:00000001FF
